{
  "contractName": "Voting",
  "abi": [
    {
      "constant": true,
      "inputs": [
        {
          "name": "",
          "type": "uint256"
        }
      ],
      "name": "proposals",
      "outputs": [
        {
          "name": "name",
          "type": "string"
        },
        {
          "name": "voteCount",
          "type": "uint256"
        }
      ],
      "payable": false,
      "stateMutability": "view",
      "type": "function"
    },
    {
      "constant": true,
      "inputs": [],
      "name": "votingCompleted",
      "outputs": [
        {
          "name": "",
          "type": "bool"
        }
      ],
      "payable": false,
      "stateMutability": "view",
      "type": "function"
    },
    {
      "constant": true,
      "inputs": [],
      "name": "maxVotes",
      "outputs": [
        {
          "name": "",
          "type": "uint256"
        }
      ],
      "payable": false,
      "stateMutability": "view",
      "type": "function"
    },
    {
      "constant": true,
      "inputs": [],
      "name": "owner",
      "outputs": [
        {
          "name": "",
          "type": "address"
        }
      ],
      "payable": false,
      "stateMutability": "view",
      "type": "function"
    },
    {
      "constant": true,
      "inputs": [],
      "name": "id",
      "outputs": [
        {
          "name": "",
          "type": "uint256"
        }
      ],
      "payable": false,
      "stateMutability": "view",
      "type": "function"
    },
    {
      "inputs": [
        {
          "name": "_maxVotes",
          "type": "uint256"
        }
      ],
      "payable": false,
      "stateMutability": "nonpayable",
      "type": "constructor"
    },
    {
      "constant": false,
      "inputs": [
        {
          "name": "_name",
          "type": "string"
        }
      ],
      "name": "addProposal",
      "outputs": [],
      "payable": false,
      "stateMutability": "nonpayable",
      "type": "function"
    },
    {
      "constant": false,
      "inputs": [
        {
          "name": "_voter",
          "type": "address"
        }
      ],
      "name": "giveRightToVote",
      "outputs": [
        {
          "name": "",
          "type": "bool"
        }
      ],
      "payable": false,
      "stateMutability": "nonpayable",
      "type": "function"
    },
    {
      "constant": false,
      "inputs": [
        {
          "name": "_proposalID",
          "type": "uint256"
        }
      ],
      "name": "vote",
      "outputs": [],
      "payable": false,
      "stateMutability": "nonpayable",
      "type": "function"
    },
    {
      "constant": false,
      "inputs": [],
      "name": "completeVoting",
      "outputs": [],
      "payable": false,
      "stateMutability": "nonpayable",
      "type": "function"
    },
    {
      "constant": true,
      "inputs": [],
      "name": "winningProposal",
      "outputs": [
        {
          "name": "_proposalID",
          "type": "uint256"
        }
      ],
      "payable": false,
      "stateMutability": "view",
      "type": "function"
    },
    {
      "constant": true,
      "inputs": [],
      "name": "getWinner",
      "outputs": [
        {
          "name": "",
          "type": "string"
        },
        {
          "name": "",
          "type": "uint256"
        }
      ],
      "payable": false,
      "stateMutability": "view",
      "type": "function"
    },
    {
      "constant": false,
      "inputs": [
        {
          "name": "_maxVotes",
          "type": "uint256"
        }
      ],
      "name": "nextVoting",
      "outputs": [],
      "payable": false,
      "stateMutability": "nonpayable",
      "type": "function"
    }
  ],
  "bytecode": "0x608060405234801561001057600080fd5b506040516020806114e483398101806040528101908080519060200190929190505050600180819055508060028190555050611493806100516000396000f3006080604052600436106100ba576000357c0100000000000000000000000000000000000000000000000000000000900463ffffffff1680630121b93f146100bf578063013cf08b146100ec5780632fdae3c51461019957806354f6052714610202578063609ff1bd1461022f5780636ac0c8921461025a578063777c3acf146102895780637c952f43146102b45780638da5cb5b146102cb5780638e7ea5b2146103225780639e7b8d61146103b9578063af640d0f14610414575b600080fd5b3480156100cb57600080fd5b506100ea6004803603810190808035906020019092919050505061043f565b005b3480156100f857600080fd5b50610117600480360381019080803590602001909291905050506106f6565b6040518080602001838152602001828103825284818151815260200191508051906020019080838360005b8381101561015d578082015181840152602081019050610142565b50505050905090810190601f16801561018a5780820380516001836020036101000a031916815260200191505b50935050505060405180910390f35b3480156101a557600080fd5b50610200600480360381019080803590602001908201803590602001908080601f01602080910402602001604051908101604052809392919081815260200183838082843782019150505050505091929192905050506107c1565b005b34801561020e57600080fd5b5061022d60048036038101908080359060200190929190505050610b19565b005b34801561023b57600080fd5b50610244610c3d565b6040518082815260200191505060405180910390f35b34801561026657600080fd5b5061026f610e62565b604051808215151515815260200191505060405180910390f35b34801561029557600080fd5b5061029e610e75565b6040518082815260200191505060405180910390f35b3480156102c057600080fd5b506102c9610e7b565b005b3480156102d757600080fd5b506102e0610ef3565b604051808273ffffffffffffffffffffffffffffffffffffffff1673ffffffffffffffffffffffffffffffffffffffff16815260200191505060405180910390f35b34801561032e57600080fd5b50610337610f18565b6040518080602001838152602001828103825284818151815260200191508051906020019080838360005b8381101561037d578082015181840152602081019050610362565b50505050905090810190601f1680156103aa5780820380516001836020036101000a031916815260200191505b50935050505060405180910390f35b3480156103c557600080fd5b506103fa600480360381019080803573ffffffffffffffffffffffffffffffffffffffff16906020019092919050505061100d565b604051808215151515815260200191505060405180910390f35b34801561042057600080fd5b50610429611319565b6040518082815260200191505060405180910390f35b6000600360009054906101000a900460ff161515156104c6576040517f08c379a00000000000000000000000000000000000000000000000000000000081526004018080602001828103825260148152602001807f766f74696e672077617320636f6d706c6574656400000000000000000000000081525060200191505060405180910390fd5b33600460008273ffffffffffffffffffffffffffffffffffffffff1673ffffffffffffffffffffffffffffffffffffffff16815260200190815260200160002060010160009054906101000a900460ff1615806105675750600154600460008373ffffffffffffffffffffffffffffffffffffffff1673ffffffffffffffffffffffffffffffffffffffff1681526020019081526020016000206003015414155b15156105db576040517f08c379a00000000000000000000000000000000000000000000000000000000081526004018080602001828103825260178152602001807f74686520766f74657220616c726561647920766f74656400000000000000000081525060200191505060405180910390fd5b600460003373ffffffffffffffffffffffffffffffffffffffff1673ffffffffffffffffffffffffffffffffffffffff16815260200190815260200160002091508160030154600154141515610699576040517f08c379a00000000000000000000000000000000000000000000000000000000081526004018080602001828103825260208152602001807f796f752068617665206e6f20726967687420696e207468697320766f74696e6781525060200191505060405180910390fd5b60018260010160006101000a81548160ff02191690831515021790555082826002018190555081600001546005848154811015156106d357fe5b906000526020600020906002020160010160008282540192505081905550505050565b60058181548110151561070557fe5b9060005260206000209060020201600091509050806000018054600181600116156101000203166002900480601f0160208091040260200160405190810160405280929190818152602001828054600181600116156101000203166002900480156107b15780601f10610786576101008083540402835291602001916107b1565b820191906000526020600020905b81548152906001019060200180831161079457829003601f168201915b5050505050908060010154905082565b6000809054906101000a900473ffffffffffffffffffffffffffffffffffffffff1673ffffffffffffffffffffffffffffffffffffffff163373ffffffffffffffffffffffffffffffffffffffff1614151561081c57600080fd5b600360009054906101000a900460ff161515156108a1576040517f08c379a00000000000000000000000000000000000000000000000000000000081526004018080602001828103825260148152602001807f766f74696e672077617320636f6d706c6574656400000000000000000000000081525060200191505060405180910390fd5b80600081511415151561091c576040517f08c379a000000000000000000000000000000000000000000000000000000000815260040180806020018281038252600d8152602001807f63616e7420626520626c616e6b0000000000000000000000000000000000000081525060200191505060405180910390fd5b8160008090505b600580549050811015610aa657816040518082805190602001908083835b6020831015156109665780518252602082019150602081019050602083039250610941565b6001836020036101000a0380198251168184511680821785525050505050509050019150506040518091039020600019166005828154811015156109a657fe5b90600052602060002090600202016000016040518082805460018160011615610100020316600290048015610a125780601f106109f0576101008083540402835291820191610a12565b820191906000526020600020905b8154815290600101906020018083116109fe575b505091505060405180910390206000191614151515610a99576040517f08c379a00000000000000000000000000000000000000000000000000000000081526004018080602001828103825260118152602001807f6e616d65206d75737420626520756e697100000000000000000000000000000081525060200191505060405180910390fd5b8080600101915050610923565b600560408051908101604052808681526020016000815250908060018154018082558091505090600182039060005260206000209060020201600090919290919091506000820151816000019080519060200190610b0592919061131f565b506020820151816001015550505050505050565b6000809054906101000a900473ffffffffffffffffffffffffffffffffffffffff1673ffffffffffffffffffffffffffffffffffffffff163373ffffffffffffffffffffffffffffffffffffffff16141515610b7457600080fd5b600360009054906101000a900460ff161515610bf8576040517f08c379a000000000000000000000000000000000000000000000000000000000815260040180806020018281038252601a8152602001807f766f74696e6720646f206e6f742066696e69736865642079657400000000000081525060200191505060405180910390fd5b60016000815480929190600101919050555060056000610c18919061139f565b806002819055506000600360006101000a81548160ff02191690831515021790555050565b600080600080600360009054906101000a900460ff161515610cc7576040517f08c379a000000000000000000000000000000000000000000000000000000000815260040180806020018281038252601a8152602001807f766f74696e6720646f206e6f742066696e69736865642079657400000000000081525060200191505060405180910390fd5b600360009054906101000a900460ff161515610d4b576040517f08c379a000000000000000000000000000000000000000000000000000000000815260040180806020018281038252601a8152602001807f766f74696e6720646f206e6f742066696e69736865642079657400000000000081525060200191505060405180910390fd5b60009250600090505b600580549050811015610de257600581815481101515610d7057fe5b9060005260206000209060020201600101548201915082600582815481101515610d9657fe5b9060005260206000209060020201600101541115610dd557600581815481101515610dbd57fe5b90600052602060002090600202016001015492508093505b8080600101915050610d54565b6002548211151515610e5c576040517f08c379a00000000000000000000000000000000000000000000000000000000081526004018080602001828103825260188152602001807f74686520766f74696e67207761732066616c736966696564000000000000000081525060200191505060405180910390fd5b50505090565b600360009054906101000a900460ff1681565b60025481565b6000809054906101000a900473ffffffffffffffffffffffffffffffffffffffff1673ffffffffffffffffffffffffffffffffffffffff163373ffffffffffffffffffffffffffffffffffffffff16141515610ed657600080fd5b6001600360006101000a81548160ff021916908315150217905550565b6000809054906101000a900473ffffffffffffffffffffffffffffffffffffffff1681565b6060600080610f25610c3d565b9050600581815481101515610f3657fe5b9060005260206000209060020201600001600582815481101515610f5657fe5b906000526020600020906002020160010154818054600181600116156101000203166002900480601f016020809104026020016040519081016040528092919081815260200182805460018160011615610100020316600290048015610ffd5780601f10610fd257610100808354040283529160200191610ffd565b820191906000526020600020905b815481529060010190602001808311610fe057829003601f168201915b5050505050915092509250509091565b6000806000809054906101000a900473ffffffffffffffffffffffffffffffffffffffff1673ffffffffffffffffffffffffffffffffffffffff163373ffffffffffffffffffffffffffffffffffffffff1614151561106b57600080fd5b600360009054906101000a900460ff161515156110f0576040517f08c379a00000000000000000000000000000000000000000000000000000000081526004018080602001828103825260148152602001807f766f74696e672077617320636f6d706c6574656400000000000000000000000081525060200191505060405180910390fd5b82600460008273ffffffffffffffffffffffffffffffffffffffff1673ffffffffffffffffffffffffffffffffffffffff16815260200190815260200160002060010160009054906101000a900460ff1615806111915750600154600460008373ffffffffffffffffffffffffffffffffffffffff1673ffffffffffffffffffffffffffffffffffffffff1681526020019081526020016000206003015414155b1515611205576040517f08c379a00000000000000000000000000000000000000000000000000000000081526004018080602001828103825260178152602001807f74686520766f74657220616c726561647920766f74656400000000000000000081525060200191505060405180910390fd5b600460008573ffffffffffffffffffffffffffffffffffffffff1673ffffffffffffffffffffffffffffffffffffffff16815260200190815260200160002091506001548260030154141515156112c4576040517f08c379a00000000000000000000000000000000000000000000000000000000081526004018080602001828103825260178152602001807f796f7520616c726561647920686176652072696768747300000000000000000081525060200191505060405180910390fd5b6001826000018190555060015482600301819055508160010160009054906101000a900460ff161561130e5760008260010160006101000a81548160ff0219169083151502179055505b600192505050919050565b60015481565b828054600181600116156101000203166002900490600052602060002090601f016020900481019282601f1061136057805160ff191683800117855561138e565b8280016001018555821561138e579182015b8281111561138d578251825591602001919060010190611372565b5b50905061139b91906113c3565b5090565b50805460008255600202906000526020600020908101906113c091906113e8565b50565b6113e591905b808211156113e15760008160009055506001016113c9565b5090565b90565b61141c91905b808211156114185760008082016000611407919061141f565b6001820160009055506002016113ee565b5090565b90565b50805460018160011615610100020316600290046000825580601f106114455750611464565b601f01602090049060005260206000209081019061146391906113c3565b5b505600a165627a7a723058200de26b36abd8b9b93e468b643a83b24572be9c4e0124c54e52fad1ae974276030029",
  "source": "pragma solidity ^0.4.23;\n\n// import \"./SimpleVerifier.sol\";\n// import \"../node_modules/openzeppelin-solidity/contracts/ownership/Ownable.sol\";\n\n// contract Voting is Ownable, SimpleVerifier {\ncontract Voting {\n    // but maybe better include calculation of votes\n    // uint256 private votesCount;\n\n    address public owner;\n    uint256 public id;\n    uint256 public maxVotes;\n    bool public votingCompleted;\n    \n    struct Proposal {\n        string name;\n        uint256 voteCount;\n    }\n\n    modifier onlyOwner() {\n        require(msg.sender == owner);\n        _;\n    }\n\n    modifier onlyPositive(uint256 _number) {\n        require(_number >= 0);\n        _;\n    }\n\n    modifier isBlank(string _str) {\n        require(bytes(_str).length != 0, \"cant be blank\");\n        _;        \n    }\n\n    struct Voter {\n        uint256 weight; // for some feature\n        bool voted;\n        uint256 proposalID;\n        uint256 votingID;\n    }\n    \n    mapping(address => Voter) private voters;\n    Proposal[] public proposals;\n\n    constructor(uint256 _maxVotes) public {\n        id = 1;\n        maxVotes = _maxVotes;\n    }\n\n    modifier checkUniqName(string _name) {\n        for(uint256 i = 0; i < proposals.length; i++) {\n            require(\n                keccak256(proposals[i].name) != keccak256(_name),\n                \"name must be uniq\"\n            );\n        }\n        _;\n    }\n\n    modifier isVoted(address _voter) {\n        require(\n            !voters[_voter].voted || voters[_voter].votingID != id,\n            \"the voter already voted\"\n        );\n        _;\n    }\n\n    modifier isHeld() {\n        require(!votingCompleted, \"voting was completed\");\n        _;\n    }\n\n    modifier isCompleted() {\n        require(votingCompleted, \"voting do not finished yet\");\n        _;\n    }\n    \n    function addProposal(string _name)\n        public\n        onlyOwner\n        isHeld\n        isBlank(_name)\n        checkUniqName(_name)\n    {\n        proposals.push(Proposal({ name: _name, voteCount: 0 }));\n    }\n\n    function giveRightToVote(address _voter)\n        public \n        onlyOwner\n        isHeld\n        isVoted(_voter)\n        returns(bool)\n    {\n        Voter storage voter = voters[_voter];\n\n        require(voter.votingID != id, \"you already have rights\");\n\n        voter.weight = 1;\n        voter.votingID = id;\n        if (voter.voted)\n            voter.voted = false;\n        return true;\n    }\n\n    function vote(uint256 _proposalID) public isHeld isVoted(msg.sender) {\n        Voter storage sender = voters[msg.sender];\n        require(id == sender.votingID, \"you have no right in this voting\");\n\n        sender.voted = true;    \n        sender.proposalID = _proposalID;\n\n        proposals[_proposalID].voteCount += sender.weight;\n    }\n\n    function completeVoting() public onlyOwner {\n        votingCompleted = true;\n    }\n\n    function winningProposal() public isCompleted view returns(uint256 _proposalID) {\n        require(votingCompleted, \"voting do not finished yet\");\n\n        uint256 winningVoteCount = 0;\n        uint256 totalVotes;\n\n        for(uint256 i = 0; i < proposals.length; i++) {\n            // this way will be cheaper for honest voting\n            totalVotes += proposals[i].voteCount; \n\n            if (proposals[i].voteCount > winningVoteCount) {\n                winningVoteCount = proposals[i].voteCount;\n                _proposalID = i;\n            }\n        }\n        require(totalVotes <= maxVotes, \"the voting was falsified\");\n    }\n\n    function getWinner() public view returns(string, uint256) {\n        uint256 proposalID = winningProposal();\n        return (proposals[proposalID].name, proposals[proposalID].voteCount);\n    }\n\n    function nextVoting(uint256 _maxVotes) public onlyOwner isCompleted { \n        id++;\n        delete(proposals);\n        maxVotes = _maxVotes;\n        votingCompleted = false;\n    }\n}\n",
  "sourcePath": "/home/serhii/solidity/first_project/contracts/Voting.sol",
  "compiler": {
    "name": "solc",
    "version": "0.4.24+commit.e67f0147.Emscripten.clang"
  },
  "schemaVersion": "2.0.0",
  "updatedAt": "2018-05-31T15:56:13.440Z"
}