{
  "contractName": "Voting",
  "abi": [
    {
      "constant": true,
      "inputs": [
        {
          "name": "",
          "type": "uint256"
        }
      ],
      "name": "proposals",
      "outputs": [
        {
          "name": "name",
          "type": "string"
        },
        {
          "name": "voteCount",
          "type": "uint256"
        }
      ],
      "payable": false,
      "stateMutability": "view",
      "type": "function"
    },
    {
      "constant": true,
      "inputs": [],
      "name": "votingCompleted",
      "outputs": [
        {
          "name": "",
          "type": "bool"
        }
      ],
      "payable": false,
      "stateMutability": "view",
      "type": "function"
    },
    {
      "constant": true,
      "inputs": [],
      "name": "maxVotes",
      "outputs": [
        {
          "name": "",
          "type": "uint256"
        }
      ],
      "payable": false,
      "stateMutability": "view",
      "type": "function"
    },
    {
      "constant": true,
      "inputs": [],
      "name": "owner",
      "outputs": [
        {
          "name": "",
          "type": "address"
        }
      ],
      "payable": false,
      "stateMutability": "view",
      "type": "function"
    },
    {
      "constant": true,
      "inputs": [
        {
          "name": "",
          "type": "address"
        }
      ],
      "name": "voters",
      "outputs": [
        {
          "name": "weight",
          "type": "uint256"
        },
        {
          "name": "voted",
          "type": "bool"
        },
        {
          "name": "proposalID",
          "type": "uint256"
        },
        {
          "name": "votingID",
          "type": "uint256"
        }
      ],
      "payable": false,
      "stateMutability": "view",
      "type": "function"
    },
    {
      "constant": true,
      "inputs": [],
      "name": "id",
      "outputs": [
        {
          "name": "",
          "type": "uint256"
        }
      ],
      "payable": false,
      "stateMutability": "view",
      "type": "function"
    },
    {
      "constant": false,
      "inputs": [
        {
          "name": "newOwner",
          "type": "address"
        }
      ],
      "name": "transferOwnership",
      "outputs": [],
      "payable": false,
      "stateMutability": "nonpayable",
      "type": "function"
    },
    {
      "inputs": [
        {
          "name": "_maxVotes",
          "type": "uint256"
        }
      ],
      "payable": false,
      "stateMutability": "nonpayable",
      "type": "constructor"
    },
    {
      "anonymous": false,
      "inputs": [
        {
          "indexed": true,
          "name": "previousOwner",
          "type": "address"
        },
        {
          "indexed": true,
          "name": "newOwner",
          "type": "address"
        }
      ],
      "name": "OwnershipTransferred",
      "type": "event"
    },
    {
      "constant": false,
      "inputs": [
        {
          "name": "_name",
          "type": "string"
        }
      ],
      "name": "addProposal",
      "outputs": [],
      "payable": false,
      "stateMutability": "nonpayable",
      "type": "function"
    },
    {
      "constant": false,
      "inputs": [
        {
          "name": "_voter",
          "type": "address"
        }
      ],
      "name": "giveRightToVote",
      "outputs": [
        {
          "name": "",
          "type": "bool"
        }
      ],
      "payable": false,
      "stateMutability": "nonpayable",
      "type": "function"
    },
    {
      "constant": false,
      "inputs": [
        {
          "name": "_proposalID",
          "type": "uint256"
        }
      ],
      "name": "vote",
      "outputs": [],
      "payable": false,
      "stateMutability": "nonpayable",
      "type": "function"
    },
    {
      "constant": false,
      "inputs": [],
      "name": "completeVoting",
      "outputs": [],
      "payable": false,
      "stateMutability": "nonpayable",
      "type": "function"
    },
    {
      "constant": true,
      "inputs": [],
      "name": "winningProposal",
      "outputs": [
        {
          "name": "_proposalID",
          "type": "uint256"
        }
      ],
      "payable": false,
      "stateMutability": "view",
      "type": "function"
    },
    {
      "constant": true,
      "inputs": [],
      "name": "getWinner",
      "outputs": [
        {
          "name": "",
          "type": "string"
        },
        {
          "name": "",
          "type": "uint256"
        }
      ],
      "payable": false,
      "stateMutability": "view",
      "type": "function"
    },
    {
      "constant": false,
      "inputs": [
        {
          "name": "_maxVotes",
          "type": "uint256"
        }
      ],
      "name": "nextVoting",
      "outputs": [],
      "payable": false,
      "stateMutability": "nonpayable",
      "type": "function"
    },
    {
      "constant": true,
      "inputs": [],
      "name": "proposalsLength",
      "outputs": [
        {
          "name": "",
          "type": "uint256"
        }
      ],
      "payable": false,
      "stateMutability": "view",
      "type": "function"
    }
  ],
  "bytecode": "0x608060405234801561001057600080fd5b506040516020806117d983398101806040528101908080519060200190929190505050336000806101000a81548173ffffffffffffffffffffffffffffffffffffffff021916908373ffffffffffffffffffffffffffffffffffffffff160217905550600180819055508060028190555050611748806100916000396000f3006080604052600436106100db576000357c0100000000000000000000000000000000000000000000000000000000900463ffffffff1680630121b93f146100e0578063013cf08b1461010d5780632fdae3c5146101ba57806344c7c8671461022357806354f605271461024e578063609ff1bd1461027b5780636ac0c892146102a6578063777c3acf146102d55780637c952f43146103005780638da5cb5b146103175780638e7ea5b21461036e5780639e7b8d6114610405578063a3ec138d14610460578063af640d0f146104d0578063f2fde38b146104fb575b600080fd5b3480156100ec57600080fd5b5061010b6004803603810190808035906020019092919050505061053e565b005b34801561011957600080fd5b50610138600480360381019080803590602001909291905050506107f5565b6040518080602001838152602001828103825284818151815260200191508051906020019080838360005b8381101561017e578082015181840152602081019050610163565b50505050905090810190601f1680156101ab5780820380516001836020036101000a031916815260200191505b50935050505060405180910390f35b3480156101c657600080fd5b50610221600480360381019080803590602001908201803590602001908080601f01602080910402602001604051908101604052809392919081815260200183838082843782019150505050505091929192905050506108c0565b005b34801561022f57600080fd5b50610238610c18565b6040518082815260200191505060405180910390f35b34801561025a57600080fd5b5061027960048036038101908080359060200190929190505050610c25565b005b34801561028757600080fd5b50610290610d49565b6040518082815260200191505060405180910390f35b3480156102b257600080fd5b506102bb610f6e565b604051808215151515815260200191505060405180910390f35b3480156102e157600080fd5b506102ea610f81565b6040518082815260200191505060405180910390f35b34801561030c57600080fd5b50610315610f87565b005b34801561032357600080fd5b5061032c611016565b604051808273ffffffffffffffffffffffffffffffffffffffff1673ffffffffffffffffffffffffffffffffffffffff16815260200191505060405180910390f35b34801561037a57600080fd5b5061038361103b565b6040518080602001838152602001828103825284818151815260200191508051906020019080838360005b838110156103c95780820151818401526020810190506103ae565b50505050905090810190601f1680156103f65780820380516001836020036101000a031916815260200191505b50935050505060405180910390f35b34801561041157600080fd5b50610446600480360381019080803573ffffffffffffffffffffffffffffffffffffffff169060200190929190505050611130565b604051808215151515815260200191505060405180910390f35b34801561046c57600080fd5b506104a1600480360381019080803573ffffffffffffffffffffffffffffffffffffffff16906020019092919050505061143c565b604051808581526020018415151515815260200183815260200182815260200194505050505060405180910390f35b3480156104dc57600080fd5b506104e5611479565b6040518082815260200191505060405180910390f35b34801561050757600080fd5b5061053c600480360381019080803573ffffffffffffffffffffffffffffffffffffffff16906020019092919050505061147f565b005b6000600360009054906101000a900460ff161515156105c5576040517f08c379a00000000000000000000000000000000000000000000000000000000081526004018080602001828103825260148152602001807f766f74696e672077617320636f6d706c6574656400000000000000000000000081525060200191505060405180910390fd5b33600460008273ffffffffffffffffffffffffffffffffffffffff1673ffffffffffffffffffffffffffffffffffffffff16815260200190815260200160002060010160009054906101000a900460ff1615806106665750600154600460008373ffffffffffffffffffffffffffffffffffffffff1673ffffffffffffffffffffffffffffffffffffffff1681526020019081526020016000206003015414155b15156106da576040517f08c379a00000000000000000000000000000000000000000000000000000000081526004018080602001828103825260178152602001807f74686520766f74657220616c726561647920766f74656400000000000000000081525060200191505060405180910390fd5b600460003373ffffffffffffffffffffffffffffffffffffffff1673ffffffffffffffffffffffffffffffffffffffff16815260200190815260200160002091508160030154600154141515610798576040517f08c379a00000000000000000000000000000000000000000000000000000000081526004018080602001828103825260208152602001807f796f752068617665206e6f20726967687420696e207468697320766f74696e6781525060200191505060405180910390fd5b60018260010160006101000a81548160ff02191690831515021790555082826002018190555081600001546005848154811015156107d257fe5b906000526020600020906002020160010160008282540192505081905550505050565b60058181548110151561080457fe5b9060005260206000209060020201600091509050806000018054600181600116156101000203166002900480601f0160208091040260200160405190810160405280929190818152602001828054600181600116156101000203166002900480156108b05780601f10610885576101008083540402835291602001916108b0565b820191906000526020600020905b81548152906001019060200180831161089357829003601f168201915b5050505050908060010154905082565b6000809054906101000a900473ffffffffffffffffffffffffffffffffffffffff1673ffffffffffffffffffffffffffffffffffffffff163373ffffffffffffffffffffffffffffffffffffffff1614151561091b57600080fd5b600360009054906101000a900460ff161515156109a0576040517f08c379a00000000000000000000000000000000000000000000000000000000081526004018080602001828103825260148152602001807f766f74696e672077617320636f6d706c6574656400000000000000000000000081525060200191505060405180910390fd5b806000815114151515610a1b576040517f08c379a000000000000000000000000000000000000000000000000000000000815260040180806020018281038252600d8152602001807f63616e7420626520626c616e6b0000000000000000000000000000000000000081525060200191505060405180910390fd5b8160008090505b600580549050811015610ba557816040518082805190602001908083835b602083101515610a655780518252602082019150602081019050602083039250610a40565b6001836020036101000a038019825116818451168082178552505050505050905001915050604051809103902060001916600582815481101515610aa557fe5b90600052602060002090600202016000016040518082805460018160011615610100020316600290048015610b115780601f10610aef576101008083540402835291820191610b11565b820191906000526020600020905b815481529060010190602001808311610afd575b505091505060405180910390206000191614151515610b98576040517f08c379a00000000000000000000000000000000000000000000000000000000081526004018080602001828103825260118152602001807f6e616d65206d75737420626520756e697100000000000000000000000000000081525060200191505060405180910390fd5b8080600101915050610a22565b600560408051908101604052808681526020016000815250908060018154018082558091505090600182039060005260206000209060020201600090919290919091506000820151816000019080519060200190610c049291906115d4565b506020820151816001015550505050505050565b6000600580549050905090565b6000809054906101000a900473ffffffffffffffffffffffffffffffffffffffff1673ffffffffffffffffffffffffffffffffffffffff163373ffffffffffffffffffffffffffffffffffffffff16141515610c8057600080fd5b600360009054906101000a900460ff161515610d04576040517f08c379a000000000000000000000000000000000000000000000000000000000815260040180806020018281038252601a8152602001807f766f74696e6720646f206e6f742066696e69736865642079657400000000000081525060200191505060405180910390fd5b60016000815480929190600101919050555060056000610d249190611654565b806002819055506000600360006101000a81548160ff02191690831515021790555050565b600080600080600360009054906101000a900460ff161515610dd3576040517f08c379a000000000000000000000000000000000000000000000000000000000815260040180806020018281038252601a8152602001807f766f74696e6720646f206e6f742066696e69736865642079657400000000000081525060200191505060405180910390fd5b600360009054906101000a900460ff161515610e57576040517f08c379a000000000000000000000000000000000000000000000000000000000815260040180806020018281038252601a8152602001807f766f74696e6720646f206e6f742066696e69736865642079657400000000000081525060200191505060405180910390fd5b60009250600090505b600580549050811015610eee57600581815481101515610e7c57fe5b9060005260206000209060020201600101548201915082600582815481101515610ea257fe5b9060005260206000209060020201600101541115610ee157600581815481101515610ec957fe5b90600052602060002090600202016001015492508093505b8080600101915050610e60565b6002548211151515610f68576040517f08c379a00000000000000000000000000000000000000000000000000000000081526004018080602001828103825260188152602001807f74686520766f74696e67207761732066616c736966696564000000000000000081525060200191505060405180910390fd5b50505090565b600360009054906101000a900460ff1681565b60025481565b6000809054906101000a900473ffffffffffffffffffffffffffffffffffffffff1673ffffffffffffffffffffffffffffffffffffffff163373ffffffffffffffffffffffffffffffffffffffff16141515610fe257600080fd5b600360009054906101000a900460ff161515611014576001600360006101000a81548160ff0219169083151502179055505b565b6000809054906101000a900473ffffffffffffffffffffffffffffffffffffffff1681565b6060600080611048610d49565b905060058181548110151561105957fe5b906000526020600020906002020160000160058281548110151561107957fe5b906000526020600020906002020160010154818054600181600116156101000203166002900480601f0160208091040260200160405190810160405280929190818152602001828054600181600116156101000203166002900480156111205780601f106110f557610100808354040283529160200191611120565b820191906000526020600020905b81548152906001019060200180831161110357829003601f168201915b5050505050915092509250509091565b6000806000809054906101000a900473ffffffffffffffffffffffffffffffffffffffff1673ffffffffffffffffffffffffffffffffffffffff163373ffffffffffffffffffffffffffffffffffffffff1614151561118e57600080fd5b600360009054906101000a900460ff16151515611213576040517f08c379a00000000000000000000000000000000000000000000000000000000081526004018080602001828103825260148152602001807f766f74696e672077617320636f6d706c6574656400000000000000000000000081525060200191505060405180910390fd5b82600460008273ffffffffffffffffffffffffffffffffffffffff1673ffffffffffffffffffffffffffffffffffffffff16815260200190815260200160002060010160009054906101000a900460ff1615806112b45750600154600460008373ffffffffffffffffffffffffffffffffffffffff1673ffffffffffffffffffffffffffffffffffffffff1681526020019081526020016000206003015414155b1515611328576040517f08c379a00000000000000000000000000000000000000000000000000000000081526004018080602001828103825260178152602001807f74686520766f74657220616c726561647920766f74656400000000000000000081525060200191505060405180910390fd5b600460008573ffffffffffffffffffffffffffffffffffffffff1673ffffffffffffffffffffffffffffffffffffffff16815260200190815260200160002091506001548260030154141515156113e7576040517f08c379a00000000000000000000000000000000000000000000000000000000081526004018080602001828103825260178152602001807f796f7520616c726561647920686176652072696768747300000000000000000081525060200191505060405180910390fd5b6001826000018190555060015482600301819055508160010160009054906101000a900460ff16156114315760008260010160006101000a81548160ff0219169083151502179055505b600192505050919050565b60046020528060005260406000206000915090508060000154908060010160009054906101000a900460ff16908060020154908060030154905084565b60015481565b6000809054906101000a900473ffffffffffffffffffffffffffffffffffffffff1673ffffffffffffffffffffffffffffffffffffffff163373ffffffffffffffffffffffffffffffffffffffff161415156114da57600080fd5b600073ffffffffffffffffffffffffffffffffffffffff168173ffffffffffffffffffffffffffffffffffffffff161415151561151657600080fd5b8073ffffffffffffffffffffffffffffffffffffffff166000809054906101000a900473ffffffffffffffffffffffffffffffffffffffff1673ffffffffffffffffffffffffffffffffffffffff167f8be0079c531659141344cd1fd0a4f28419497f9722a3daafe3b4186f6b6457e060405160405180910390a3806000806101000a81548173ffffffffffffffffffffffffffffffffffffffff021916908373ffffffffffffffffffffffffffffffffffffffff16021790555050565b828054600181600116156101000203166002900490600052602060002090601f016020900481019282601f1061161557805160ff1916838001178555611643565b82800160010185558215611643579182015b82811115611642578251825591602001919060010190611627565b5b5090506116509190611678565b5090565b5080546000825560020290600052602060002090810190611675919061169d565b50565b61169a91905b8082111561169657600081600090555060010161167e565b5090565b90565b6116d191905b808211156116cd57600080820160006116bc91906116d4565b6001820160009055506002016116a3565b5090565b90565b50805460018160011615610100020316600290046000825580601f106116fa5750611719565b601f0160209004906000526020600020908101906117189190611678565b5b505600a165627a7a72305820053d549ab3ba94e4d0fd9f21717da31d77b054f8f603e54b5d2c6f16c9a4285a0029",
  "source": "pragma solidity ^0.4.23;\n\nimport \"./SimpleVerifier.sol\";\nimport \"../node_modules/openzeppelin-solidity/contracts/ownership/Ownable.sol\";\n\ncontract Voting is Ownable, SimpleVerifier {\n    // but maybe better include calculation of votes\n    // uint256 private votesCount;\n\n    uint256 public id;\n    uint256 public maxVotes;\n    bool public votingCompleted;\n\n    struct Proposal {\n        string name;\n        uint256 voteCount;\n    }\n\n    struct Voter {\n        uint256 weight; // for some feature\n        bool voted;\n        uint256 proposalID;\n        uint256 votingID;\n    }\n\n    mapping(address => Voter) public voters;\n    Proposal[] public proposals;\n\n    constructor(uint256 _maxVotes) public {\n        id = 1;\n        maxVotes = _maxVotes;\n    }\n\n    modifier checkUniqName(string _name) {\n        for(uint256 i = 0; i < proposals.length; i++) {\n            require(\n                keccak256(proposals[i].name) != keccak256(_name),\n                \"name must be uniq\"\n            );\n        }\n        _;\n    }\n\n    modifier isVoted(address _voter) {\n        require(\n            !voters[_voter].voted || voters[_voter].votingID != id,\n            \"the voter already voted\"\n        );\n        _;\n    }\n\n    modifier isHeld() {\n        require(!votingCompleted, \"voting was completed\");\n        _;\n    }\n\n    modifier isCompleted() {\n        require(votingCompleted, \"voting do not finished yet\");\n        _;\n    }\n\n    function addProposal(string _name)\n        public\n        onlyOwner\n        isHeld\n        isBlank(_name)\n        checkUniqName(_name)\n    {\n        proposals.push(Proposal({ name: _name, voteCount: 0 }));\n    }\n\n    function giveRightToVote(address _voter)\n        public\n        onlyOwner\n        isHeld\n        isVoted(_voter)\n        returns(bool)\n    {\n        Voter storage voter = voters[_voter];\n\n        require(voter.votingID != id, \"you already have rights\");\n\n        voter.weight = 1;\n        voter.votingID = id;\n        if (voter.voted)\n            voter.voted = false;\n        return true;\n    }\n\n    function vote(uint256 _proposalID) public isHeld isVoted(msg.sender) {\n        Voter storage sender = voters[msg.sender];\n        require(id == sender.votingID, \"you have no right in this voting\");\n\n        sender.voted = true;\n        sender.proposalID = _proposalID;\n\n        proposals[_proposalID].voteCount += sender.weight;\n    }\n\n    function completeVoting() public onlyOwner {\n        if (!votingCompleted)\n            votingCompleted = true;\n    }\n\n    function winningProposal() public isCompleted view returns(uint256 _proposalID) {\n        require(votingCompleted, \"voting do not finished yet\");\n\n        uint256 winningVoteCount = 0;\n        uint256 totalVotes;\n\n        for(uint256 i = 0; i < proposals.length; i++) {\n            // this way will be cheaper for honest voting\n            totalVotes += proposals[i].voteCount;\n\n            if (proposals[i].voteCount > winningVoteCount) {\n                winningVoteCount = proposals[i].voteCount;\n                _proposalID = i;\n            }\n        }\n        require(totalVotes <= maxVotes, \"the voting was falsified\");\n    }\n\n    function getWinner() public view returns(string, uint256) {\n        uint256 proposalID = winningProposal();\n        return (proposals[proposalID].name, proposals[proposalID].voteCount);\n    }\n\n    function nextVoting(uint256 _maxVotes) public onlyOwner isCompleted {\n        id++;\n        delete(proposals);\n        maxVotes = _maxVotes;\n        votingCompleted = false;\n    }\n\n    function proposalsLength() public view returns(uint256) {\n        return proposals.length;\n    }\n}\n",
  "sourcePath": "/home/serhii/solidity/first_project/contracts/Voting.sol",
  "compiler": {
    "name": "solc",
    "version": "0.4.24+commit.e67f0147.Emscripten.clang"
  },
  "schemaVersion": "2.0.0",
  "updatedAt": "2018-06-07T16:15:16.493Z"
}